:100000000C94F1150C9419160C9419160C941916DD
:100010000C9419160C9419160C9419160C941916A4
:100020000C9419160C9419160C9419160C94191694
:100030000C9419160C9419160C9419160C94191684
:100040000C9419160C9419160C9419160C94191674
:100050000C9419160C9419160C9419160C947C1601
:100060000C9419160C9419160C9419160C94191654
:100070000C9419160C9419160C9419160C94191644
:100080000C9461220C9419160C9419160C941916E0
:100090000C9419160C9419160C9419160C94191624
:1000A0000C9419160C9419160C941916142A802BFA
:1000B000E62B1D2C712CA32CC72CDA2EE82E912FA9
:1000C000C42F2E307F317F31203220327232723293
:1000D00072327232E332F332AE25C1250E26182673
:1000E00047262926372673260B0F97058B898B8980
:1000F00005411CB0D7BD9B8D110B095430B2486F20
:100100000B0F2F172C260ED8EB7BDD6C8C2CD2B767
:100110000B0F2F172C5C9BBDBED74D229345FA16B3
:100120000B8F7B8535941B72D223596F5A064E284C
:100130006C286630686F8BCF2B1CF584DC901B3AE3
:1001400016596D198C486143614361CAA02D0B0F8C
:100150002F162C262EA603F67ADFCDC68805238B14
:10016000F40D0B4FEFE766EEDF3064B2C77B0B0F89
:100170002F162C5C585C9BBDDE7793480523934576
:10018000FA063B073FAC5B7B5B02725969D6654957
:10019000715D56329374BD5CC94CD2755997A020DD
:1001A00028B93097FC3A3B473F6C0DC0E0655D24B1
:1001B0008260F0B22E2BCDBA2C29065F4A04C1E032
:1001C00019D7C42ED0DED6000CFE503B073F6495F5
:1001D000B12E4B406E5558BDACC9655D569A7559E8
:1001E0005294BCECAAD9B1B7755969D66549C9F81A
:1001F000413B073F78091CD765090CC96509C8CB85
:1002000025204A2E6B72ABC2EA8528081A2E4B4075
:100210007E38398F5F452EFB82BC4B30257BE41541
:10022000C3E101821BC4E9E6D1AD8C35C6E5B47BE0
:10023000DB635D6E252069F07773E5035E0A17CAFC
:1002400053F4C6953B78E2412E91CBB8E6D25B8E53
:10025000EB984BE4343E0E398F5F889A1258237026
:10026000198E22468A79BFBA063D9DD0A59175396F
:100270008D35CABA2C3AD638A9BA70AE71BA2C3AB2
:10028000D6B81D1659B3DFF114B9AC632E91CBF873
:10029000D4BA604E1ED70573C9711D73C9711D7321
:1002A000895CD631B02002EB72F214B9A84739CF7D
:1002B000EF5717ECDBA5738575B8A14B23EBF2E87C
:1002C000F68D0453B2478EA732D618EF5717ECDBE2
:1002D000657596DE3EBF8EB9E43A2EC48BD775C1E4
:1002E0005C72CF251FF052B8508E9E2297F1A975EF
:1002F000CC25C7F551398F1FE606DD851BA7E12800
:1003000062A4980759418415B101D39DF2E856C6FD
:100310001AE372DABDEDB12EB7129034F867F079B6
:100320002E91CB78CD11725927E0792E91CBB8E67A
:10033000D25B8EEB984BE4343E0E3B073F242808FB
:100340004A4E4B42C6690480044E230024701A2191
:10035000B85E2E91F63842C838B156080718A71172
:1003600042C66984397E003B471F5E83AECB0800DE
:10037000819C940090715A57B2249CD622E3E92ABA
:10038000D25E46081967B2249C061C460819A7319C
:10039000C9F8053B873F6C09DC609CC6A25E8700FC
:1003A00034F07215B1C721A1E3C45A211C609C86A8
:1003B000848ED35874FC503B073F64090CC9698490
:1003C00090711A938CD308739C4608AE17AB8C754A
:1003D0001A012081CB3A8D304798E334024002273E
:1003E000D60AE1C33B473F6C0DBA2E03365483EB6C
:1003F000B416194FD7A0EB32024020A77519938C81
:1004000049C669048040CE6449F8453B471F5852AD
:10041000542F63B23C269939A10120813359124EE1
:100420004A00C838AD976BD07519012090D3BA8CAB
:1004300049C624E33402402067B2247C093B8FBFC5
:10044000E056026B046E8745D6ECEDB0585939AAD8
:10045000BA70AE718B5D185DCA89AEAE72E306DD0F
:10046000851B8371FB0BE492E33A7A8A5CD4A3A7E1
:10047000C8651D73895CD63197C8653C5D173EE041
:10048000F35CF27D3BCF5FBE6D585DB7C3226BF668
:10049000A4EAC2B9C6E5F6388D095DE634C61AF499
:1004A000F47475C1BE5D5667E9ED17E692E33A7ADA
:1004B0008A5CD4632E91CB3AE692C7920B2017EE5A
:1004C000E38239F9781D73C971FD083B8F5F452EB2
:1004D000FB82BC60DC2E63AC414FCF824404935658
:1004E0001446C9E6CDEA1AF4745A63DFBA4F97D5B9
:1004F00005A1A1E41773E57D2EB98E0BE6E473E048
:10050000B42E81238FD70573F2B86E3DE692E3BA1D
:10051000A0A77C0F3B8F7F186ED05DB8711A8E221A
:10052000468AB9AFB20028008BAE41D73F239FE780
:1005300012B98CC7C0897211E004FC79003BCF1F4F
:10054000E006DD851BA7E12862A498FB2A0B800248
:10055000B0E81A747D1DB9EC0B721E1D418A4BDE8A
:10056000E5089E0080090CA0FE349FE712B98CC7F5
:10057000C0897211E004FC1CAE3C5E17CCC9179C0C
:10058000809B003F023B8F076ED05DB871A3ABEB41
:10059000742A638D715F65015000165D83AEAF21D3
:1005A000977D415E306E9731D6A0A78739822700AC
:1005B000600203A89FF25BEBE82972198F8113E5B3
:1005C00022C009F83C57DEE792EBB8604EBEE0046B
:1005D000DC04F8181B8FBF83AB57AF5EFD6D392A63
:1005E00038200222540802110431023B021B301B46
:1005F0003025800920602400086EAF6B001B8F9FA0
:10060000F1CAAD65812A850D85A2541CCC9EBDF230
:10061000B11CB5820066A10201040422A840092091
:100620001003E800000402086811003304B032BC73
:10063000AE011B8F070F085E20AFB97AF5EAD5DF50
:10064000964D1504000041000010A0002008225023
:10065000365036F5901A7090A086A02A314EB70712
:10066000D5F08D14A1C881CFD9F1AF2000199F27F3
:100670000E84C998008F0207CB67084042F80067D4
:100680001E5064584AA650197DC081C5449CEDB3E4
:10069000E80AC0211DCFB973EC29EC24A7716001D1
:1006A00001CD1830E080FE2A6E822B6F5CE38D6EE8
:1006B000C291EF0251FF0079FF01D8FF005E0000F8
:1006C000D2000068146E0162014E01360120011053
:1006D000010001E800050301030703010503040607
:1006E00007060407030103070305020107030406C5
:1006F00007060502040202030304073E41553E03B8
:10070000075F2E140307142E5F08083C42BDADA5F9
:10071000BD423C003C42BDAD423C0000003CFFC33A
:100720003C0000003C42A5BD423C0037973F1338D7
:100730000100135080004C112E201C44DC80ADC4FD
:10074000600BB8217800E102E2040880021300384F
:1007500001BFDEAB57BE332F000000C08E174787A6
:10076000A3C3515407822A451564A8D2E1E87074E6
:1007700078311B000000B8CCEF70F5EABB71904CEB
:10078000F4120032701C12A10020C010EB0C90017A
:100790001080228250B0425101280002500004A073
:1007A00000084001502958A120881420002340A6A9
:1007B000150780005030390C1901201765060F030A
:1007C0000B10000000A0F0D0A080000000FC022967
:1007D0002028082902FD02FC0605110A171B0E112C
:1007E0000605000C161F0C00040406090F060A0F6C
:1007F0000F08090D0F0A090B0F0F03020F0F070D4A
:100800000D0D0F0A0E0E010D0F030E0B0B0F07053A
:100810000F0F0C083C428181818181818181423CA2
:100820000B0DC7831B2363FF03037B030318181BF4
:1008300018181F18181F1F1FF101CB01A6018201F4
:10084000F502AE02570212020F0FB4698619AA4AC6
:10085000D765A844356B65656D0406B00C1A318206
:1008600020208220468C187429127404B187AB9C16
:10087000870014725204A0E398E1CA69084021CFAE
:100880006195705AB0C7690840214F510168E0B4C2
:10089000608FD390D07159123A002997BF7ACD2C2E
:1008A000E3093C7A444E0C9617FFAEF7EF7204E072
:1008B000001CF6EFE4B567AE5E7DCE95EF71E6CC39
:1008C00099D75EBD72F635FFFFFFFFFFFFFFFFFF09
:1008D000FFFFFFFFFFFFFFFFFFFFFFFFFFFFFFFF28
:1008E000FFFFFFFFFFFFFFFFFFFFFFFF1F1F1F1F98
:1008F0001F1F1F1F1F1F1F1F1F1F1F1F1F1F1F1F08
:100900001F1F1F1F1F1F1F1F1F1F1F1F1F1F1F1FF7
:100910001F250DFFFFFFFFFFFFFFFB0303BB034787
:10092000FFFBC3033F83FBFFFB0303BB13FF030377
:10093000FFFFFFFFFFFFFFFF1F1F1F1F1F1F1F1BCB
:1009400018181B181C1F1F1B18181B1F1F1B1818FB
:100950001B191F19191F1F1F1F1F1F1F1F0B04E427
:1009600003B703930367033A0385053D051405CBDD
:100970000484043D0412100080403D010101F40490
:1009800004F40101013D408000F7E8D1C0DCA24140
:1009900058444E5841A2DCC0D0E8F7008040BDC1A9
:1009A000C101F40404F40161E1FD408000F7E8D7DF
:1009B000C3DDA25D7663775F5DA2DCC1D7E8F70097
:1009C00080403F151501FC7C54D4011F1535408033
:1009D00000F7E8D1C0DCA241545A5A4041A2DCC021
:1009E000D0E8F7118761C284EE100830901B724383
:1009F000061008D9850993009B0FFF7E013206FD82
:100A000005D4053F87ABB042A9A5D4526A29B59455
:100A10005A4A2DA596524BA9A5D4526A29B5945A83
:100A20004A2DA596524BA9A5D4526A29B5945A4A83
:100A30002DA596524BA9A5D4526A29B5945A4A16A7
:100A400074010B0D0303BB2323FF03037B03031874
:100A5000181B1C181F18181F1F1F0F0FB469469C66
:100A6000E070F596E100E35A59591B0105582E979D
:100A70000B414004415C2E97AA22414700100EBA58
:100A8000B6BE5E3EFE7E7E6E76EE3E5EBEBEB604B8
:100A90000222142438051D252D140C02360A040CDC
:100AA0000E0C0E0F0A00080C0C0E0E0F0E0C0000A0
:100AB0000000000000000000000000080C0E0F0EF7
:100AC0000E0C0824040C020402050A0008040402A7
:100AD0000601020C00000000000000000000000001
:100AE0000008040E01060204083221FFF20C6C6CAF
:100AF0004824000000008600FFFFFFFB83FD83FB0E
:100B0000FFEFDF81FBF7FFFBF789F7FBFFFFFF003C
:100B1000008C0000000024486C6C0CF3FFFFF30C09
:100B20006C6C482400000000CC000181C1C1C1C12F
:100B3000C1C10181C1C1C1C1C1C10181C1C1C1C1A5
:100B4000C1C0008C0000000024486C6C0CF3FF3F17
:100B5000330C6C6C482400000000C0000C8CCCCC22
:100B6000CCCCE018C4320A0A0A0A0418EC8CCCCCAB
:100B7000CCCCC0C8008C0000000024486C6C0C7306
:100B8000BF00000C6C6C482400000000C0000C8CFE
:100B9000CCCCCCCCFF00FF00000000000000FF8C9C
:100BA000CCCCCCCCC0C8008C0000000024486C6CBD
:100BB0000C00FF000000000000000000000000002A
:100BC0000000000000000000000000000000000025
:100BD0000000000000000000000000000000000015
:100BE00000000000011512FF7F7FFF0FF70BF3DB02
:100BF0004B394ADBF30BF70FFF7F7FFF00FF00004D
:100C0000ABAAA9A8A9A9A9A9A9A821220100FF0006
:100C100000000300000202020202020200000000C3
:100C2000020000030000000000000058FCFEFFFF6F
:100C3000FEFC580000000080800000C0E0F0F8F8E2
:100C4000F0E0C0000080800000000058FCFEFFFFC4
:100C5000FEFC580000000000C0E0F0F8FCFEFFFFC2
:100C6000FFFFFFFFFEFCFCFEFFFFFFFFFEFFFFFF9D
:100C7000FFFFFFFFFFFEFFFFFFFFFEFCFCFEFFFF8D
:100C8000FFFFFFFFFEFCF8F0E0C0321000000000A4
:100C90000058A45AB5255AA45800000000808000CE
:100CA00000C020D0A828D020C00000808000000014
:100CB0000058A45AB5255AA458000000000040A0CE
:100CC00050A8542A158AA4A48A352AB4444241A0C3
:100CD000AAB5AAB7ADA2A5A1A2ADB6AAB5AA404130
:100CE00042A4346A158AA4A48A152A54A850A040A4
:100CF000090E07F986AA82AA86F907003F20242A4E
:100D000026203F00E0F0F8FCFCFCFCFEFFFEFCFCB3
:100D1000F8F0E001030707070707070707070707BA
:100D200003014B1CFFFFFFFFFFFFFFFFFFFFFF7FE4
:100D3000BFFF80FEFE00FF000060606060676361CF
:100D40006161616161616161616161616161616193
:100D50006161616569016101010101010101010137
:100D60000101010101010101010303070F6F0FFFE1
:100D7000FFFFFF7F43BD423C722A262A723C42BDE0
:100D8000427F0002000000FEFE00FF0A0B0A0B8AF1
:100D90004B2AABAAABAA4B8A0B0A0B00FEFE000043
:100DA0000077323332333233323332333233323309
:100DB0003233320000000000FFFF07F71717109FC3
:100DC0001D99919F911F1D19919FF1BF50F0030034
:100DD0000000FFFF00FFD3D2D3FE01FC03000000A0
:100DE000000001FED3D200FFFF0000007733333351
:100DF0003333333333333333333333333333000326
:100E0000000000FFFF000F0A0408020202000200B7
:100E100000000001010F0A050F000000000F0F0085
:100E20000F0D0D0D0F000F000000000000000F0D52
:100E30000D000F0F00000007030303030303030368
:100E400003030303030303030300030000000F0F66
:100E5000FEFEFEFFFFFFFEFEFEFEFEFEFEFEFEFEAF
:100E6000FEFEFEFEFEFFFFFFFEFEFCF87F7F7F7FA3
:100E70007FFFFFFFFFFFFFFFFFFFFFFFFFFFFFFF02
:100E8000FFFFFF7F7F7F7F7F0000000000030303E1
:100E90000303030303030303030303030303030025
:100EA000000000001C12FE02FAF575F57ABA5AAA83
:100EB000CA3A3A3ABA3ACAAA5ABA7AF575F5FA0269
:100EC00004F87F405F5F5BDC1D9A9F9F9F9C989416
:100ED0001B1C1F1F1F1A1D1CDB5F5F40407F000093
:100EE00000000003000101010101010100000000F8
:100EF00000000000030000000000F8FCFEFFFFFF00
:100F0000FFFEFCF8000103010303010301000A0ACC
:100F100000F8E4EAFEFEEAE4F80000000100010146
:100F2000000100009BCF39EC79CA6B8FE3304F3D55
:100F3000FA9CE3B8ACC3217F5F1BC733A7358FBED4
:100F4000CE91CF791CA71CE73A6502041055A05535
:100F5000A075FFD5FF6E00960000000F008300967D
:100F60000000000F004A01960000800B024B0000B9
:100F7000000F000B024B0000800B024B0000000F23
:100F80000070034B0000000F0093024B00008093A1
:100F9000028900DC03890070038900DC03890010EA
:100FA000038900DC038900E4028900DC03890093E3
:100FB000028900DC0389006E028900DC038900934A
:100FC000028900DC038900E4028900DC03890093C4
:100FD000021301EE011301B8011301EE0113014ADE
:100FE000014C0400800B02850088018500B8018552
:100FF000000B020A018801850088010A014B028565
:10100000000B028500700385004B020A010B02856C
:1010100000B8010A016E0285006E0285006E020AA8
:10102000014B020A014B0285000B0285000B0215E1
:101030000200804A01960000000F00830096000025
:10104000000F006E0096000080DC0364004B026419
:1010500000BA026400008000000A41000105280077
:10106000020523010002140101010F010201140213
:1010700000011E08081C1422417F0000001C1C3EB9
:101080007F7F002A49A1CF536421F1DEB2981C333F
:101090000104985E51800520C0428E28C00200E401
:1010A000D160920619DD197F588E005C403801131B
:1010B000FFAF0C407541A2408D12A40E407541A2B5
:1010C000408D07EA00821EA807EA813A80A007EA5D
:1010D000817AA00E067A7508C3210C87301CC27075
:1010E00080C3810C87301CE0F0EAD5050C07381C62
:1010F000E07020C3210C07381CC870315DC0703807
:101100001DE07020C3E1F4EA028603586E8643189E
:101110000E7078F56A39580E4A806139580E9683F8
:101120001260580EC6029AC05205864582C6029ABF
:10113000C05205460A681C101840351844B180C6D4
:101140000181015403933081100E9C09009330817A
:1011500010BEC04C33F9C47EB7CBA2FBBECB48FC5B
:10116000CABE3BD8FBBEEF3B6C12BA53AAA4F71D14
:1011700066B6EFF67DDF771979CD4C3379094CC22D
:1011800004209C3910024CC284688101816114A83A
:10119000281289161810184681B680C6018101549C
:1011A0008341140B681C1018403530091308E1C046
:1011B00099002F996C16892CAC2CAC2C4C586C5483
:1011C000AA48B0A2A2202A22A222222A0351111444
:1011D000095616561622A2B259084A102B12AC0410
:1011E000B1A2228385A0A85891602588092A1B9561
:1011F000121656165654AC2C42511988042B0B2D3E
:101200008B812CAC2C64B0983C019E702004988497
:1012100009D1020302C328505124122D3020308CF2
:10122000026D018D030203A806832816D0382030F2
:10123000806A60122610C28133016012260F379730
:10124000C1CA306F5E2664C75853C972355F78F7DC
:101250009D9DA935C6014F1C6F8ED3B132D77A75CB
:101260005FB976DCDF3DBCEDACD567C0244C00C275
:10127000990321C0244C881618101846818A22919F
:10128000688101816114680B681C1018403518448E
:10129000B180C60181015403933081100E9C090076
:1012A000933081F064E923AF0FDE73140FFE827672
:1012B0007F5D7D9B8FCD676BF9899CA8DB70CBF33D
:1012C000C9E936C65C3E230C26610210CE1C08011B
:1012D000266142B4C080C0300A541489440B0C0803
:1012E0000CA340950BE542B9502E940BE542B95042
:1012F0002E940BE542B9502E940BE542B901774686
:10130000C63872A15C2817CA8572A15C2817CAC3A7
:10131000BEE042B9502E940BE542B9502E940BE535
:1013200042B9502E940BE542B9502E940BE5C27B86
:101330008FBCC8EE50DF71A15C2817CA8572A15C12
:101340002817CA8572A15C2817CA05010000FA0097
:10135000EE01FA001003FA00E402EE020000FA00C7
:101360002A02FA000000FA00EE01FA001003FA0067
:10137000E402EE020000FA002A02FA000000FA007D
:10138000EE01FA00DC03FA007003EE020000EE0248
:101390008801FA000B02FA004B02F4019302FA00F2
:1013A0000180A187DD0D9BBB201BC46B2EBDE438E3
:1013B00064E33878DCB75EC04B6FA11BC51B0D0F13
:1013C0000CA4C0400A0CA4C0400A0CA4C0400A0CE3
:1013D00078C1993367CE9C7904CD87DDD213C701DC
:1013E0008702DCBA45397281E0910B04BFD52D3DEF
:1013F00071DC9BC531975E7296ECE0730F183878FC
:101400002CDCD6A7C61EA7E04D72EB969E380EDCEC
:10141000088D8F119225244B4896902C215942B269
:1014200004762EEBB22EEBB22EEBB28E23474D4755
:101430004646F3DB46B3F839AC741C59E9D80506C7
:10144000EDF6C9F6EDFDFDC0EFEFFCFBC0FBFCFDCA
:10145000C1FEC1FDF7EFC0FDFBFDFBC4FBFDEDCD03
:10146000E1ECEDFDACA6F0F98BCF2BACA1DC901B31
:1014700072D223596D1938A1B0A1B0A198C1A02D85
:1014800001010704041E14050500020204040419E6
:1014900019000014010105030323230000000606C0
:1014A0000606061E14020200000019000B020403C7
:1014B000095C010023000E0205050B0300041E0059
:1014C0000B0305050B01010228000E03050710425E
:1014D0000208320412060807102000041E040B0242
:1014E00004050B1C010228040E0205050B50000028
:1014F0001E040B0205050801010228040E0305075E
:10150000101C030A3C0817050807101000002308E8
:101510000B020505084201022D080E0205050B1CF1
:10152000000423080B0306050B10010428080E0312
:101530000607100F040C500C1A00000000420005B2
:101540000A05050770031900930219000B02190020
:10155000E006190000804A01FA007201FA009F01BA
:1015600077014A017D0072017D009F017D004A01E3
:10157000FA007201FA004A01FA001501FA00EE01C0
:10158000FA00B801FA009F01FA007201FA009F0107
:10159000F4017201FA007201FA004A017D00720141
:1015A0007D009F0177014A017D0072017D009F014E
:1015B0007D004A01FA007201FA001501FA001501D6
:1015C000FA00EE01FA00B801FA009F01FA00720178
:1015D000FA004A01F4010000FA009302FA006E02D8
:1015E000FA003701FA007201FA00EE0177013701C3
:1015F0007D007201FA00EE01FA00B8017D00EE01F3
:101600007D007201FA009F017D0072017D009F0143
:101610007D0072017D009F01770172017D009F01B5
:10162000FA007201FA004A01FA0072017D004A01D3
:101630007D003701FA007201FA00EE0177013701EF
:101640007D007201FA00EE01FA00B8017D00EE01A2
:101650007D007201FA009F01F4012A02F4019F014A
:10166000F4019302FA006E02FA003701FA007201E7
:10167000FA00EE01770137017D007201FA00EE01F8
:10168000FA004A01FA0072017D004A017D0037012B
:10169000FA007201FA00EE01770137017D00720154
:1016A000FA00EE01FA004A01FA0072017D004A01D7
:1016B0007D00B8017D009F017D00B8017D009F0184
:1016C0007D00B80177014A017D0037017701720181
:1016D0007D0072017D00EE017D003701FA004A01B4
:1016E000E803008054415241544F4D414D4F4D4508
:1016F0004E4F5641534F53494B414B494D554E5513
:10170000545553555245534554455045504F5049F3
:1017100050410008085040584455407F00080800D8
:101720007F40554458405008080A021A22AA02FE77
:1017300000080800FE02AA221A020A20498280201C
:1017400078208053746174BDC68088203A0A53B3F0
:10175000203A0A89203A0A476F6C64203A0A447595
:101760006E67656F6E73203A80B62052756E657332
:101770008020456E656D7920537473804E616D6570
:101780003A0A88203A0A89203A0A8053C4208A0AF1
:101790004E6577208A0A8052C1C2208A80D280B1E9
:1017A00068B921808B20CA666C696374B880208C0C
:1017B000BC8D2E80506CCB20616E208E20808B20C3
:1017C000CC6761CAB8802068C86C7468208F2E808E
:1017D000B79020912080206870208F2E8020922C3E
:1017E0002080208D208C2E80932047656C6174CAE8
:1017F000C9732043756265209120610AB6802094E8
:10180000802095209680208B20B3B890209720666A
:10181000CC65640A98207669BE6167CE73209520F6
:101820009820637572CD21808B2073636F72B880AE
:10183000209920636FCA732E80209A208F2E808B70
:10184000206469656421204C6FCD2068616C66BCA2
:101850009B0AB520992097209A208F21804750809D
:101860005350808B209C20804EAE202180415354C9
:1018700041524F4B80B64865CC206CC52056616DF7
:10188000706972C62E0AB79D208733202D209E20B6
:101890008632802052C120496E2050C863652046A0
:1018A000696C6D6F74652E0AB79D208731202D20DD
:1018B0009E20863980B650B420506C6179204F6EDE
:1018C00020546170650AB5446576656C6F70B832F6
:1018D0003031398057656C636F6D65207472C4BE9A
:1018E000CE20BA98BB776E806F6620477269A3647A
:1018F0002E2093206576696C209080686173207437
:1019000075726EB8CB2061BE20CABA70C76BCA8030
:1019100070656F706C652E20506CC8CD2068656C4A
:101920007020CB20646566C874809F206372617AE2
:10193000792077697ACF6421804265207375CC2045
:10194000BA6571756970209BCD6C668070726F701E
:10195000CE6C792E208B20A02070B420222425BBB1
:1019600080616363657373209B2069822097BB80CD
:101970007669657720CAA36D6174C3206162C974FA
:1019800020A1206F72809B20656E656DC52E8049F9
:101990006E20636F6D6261742C209C20947320BA5A
:1019A0007363C28027706F6BCE27206897732E20D9
:1019B00050B4B920222325207769BE809C2098202E
:1019C0009473202D206AC720978074C9636820947F
:1019D0007320BACD6C65637420986D80A320CC9C75
:1019E000B92E204E6F726D61BE7920A180A0209C1F
:1019F00020332074696D65732C2062757420A48077
:101A0000C06D73206D696768742067BF20A1208E48
:101A10002E804372797374616C20488180486967B5
:101A2000682048818052C96E6420488180A520A624
:101A3000808820A680537065B8A680A520426C617E
:101A40007A658048C86CB92057CA6480526973B9F6
:101A5000205374CF8056656E6F6D204DBD8035204C
:101A6000A520A78048C86C203230204850803335EC
:101A70002044616D616765803220502E20A780D29E
:101A800046BF8380D246C9728380D2D1CC65838021
:101A900054776F2050616972732180D24675BE20E1
:101AA00048C9CD21808B207069636BB8757020A404
:101AB0002048502180B620D1616E6B20A120A32048
:101AC000736176B90AB520CB2095209820437572B2
:101AD000CD2180204F76CE7772C0206578BDB920A9
:101AE000A93F0AB5B584B6208580B75374CF74205A
:101AF000D26E657720A93F0AB584B6208580B78A63
:101B000020AB2072C1C2642180B6208B20AC20ADF6
:101B10000A20AEBCAF206881732180B78B20AC2037
:101B2000AD2061730A6D616E79BC98CD20706F74C1
:101B3000C3730AB7617320A120A02063CF727920FC
:101B40002180B6B0209F20C06D3F0AB684B62085A4
:101B5000808BD0B120AD0AB6B220992180B68B20FF
:101B600061CC2063CF7279B90A20AEBCAF209473E8
:101B70002180B7B0209F20943F0AB784B62085808B
:101B8000208BD0B120AD0AB620B22053502180B5B1
:101B9000B641206D6F6E7374CE2092209680D17204
:101BA0006F77209820947320616761CA2180B78A7B
:101BB00020AB2073C4642180656C6D65F46E76651E
:101BC0006E746F72F9206F662061204B696E64A19C
:101BD000222325205965F3222425204EEF3138B8E1
:101BE0003138B44865616C74E8446566656E63E5D8
:101BF00047616DE5596FF57074F364616D6167E578
:101C000065787472E1706F696E74F3417374617218
:101C10006FCB73746F6CE561747461636BF35468BC
:101C2000E572756EE566726FED796F75A1616EE4B0
:101C30007468E5676F6CE4736B696CEC796F75F2CF
:101C4000636173F4426F72EE4465E3746869F36331
:101C500061EE796FF572756E65F3666FF2736F6D95
:101C6000E5466972E5506F74696FEE444DC74B6984
:101C70006E64A167616DE55965F373746174E56124
:101C80006C72656164F9686176E56F6EE574686F22
:101C900073E54275F96E6FF4656E6F7567E86B6991
:101CA0006CEC726573F320202020A02020A020A0DF
:101CB0006564A0696EE7746FA02074EF206F66A062
:101CC0006973F46CEC6976E56974E56573F46F72B9
:101CD000E5696FEE6176E56965F36963F3756DF04B
:101CE00065E16FF569EE75F372E573E565F261F232
:101CF00020646FA054E861A00308000000002F00DA
:101D0000003C7EC3F5C381B5CB7E3C0000000003E0
:101D10000000000000000000000000081C08402037
:101D2000000808080020000000003F213F223F205B
:101D30003329272329371E113F37253D3F253D39BC
:101D400005033F253F07053F140000000000000089
:101D5000000000000000000229062000203C0B3C8F
:101D60003F253B3F21333F213E3F25213F05013F9A
:101D7000213B3F043F3F000030203F3F043B3F20DA
:101D8000003F0E3F3F023F3F213F3F090F1F113FE2
:101D90003F053B372D3B013F013F203F0F300F3FB9
:101DA000183F330C33033C03312D2318243C3E24CD
:101DB000183C242418243E183428083E0A5C543C5D
:101DC0003E04383A0000403A003E0834023E003CEF
:101DD000083C3C043C3C243C7C241818247C3C04F7
:101DE0000C282414041E243C203C1C201C3C103CC9
:101DF0003408345C503C34242C01010704041E14C4
:101E0000050500020204040419190000140101056B
:101E10000303232300000006060606061E14020222
:101E20000000000A4100010528000205230100020C
:101E3000140101010F010201140200011E27DF3706
:101E40009A5DDD2C368BCD62A3B291B0596C169B96
:101E5000C566B1195C2817CA45BA53368B2D63A7DE
:101E60007C637FCEF08205BC21C0CC6073CA9D6FBD
:101E7000ED2619090909ECEFED2F5806B0000156BF
:101E80000110D009DC107845189537BCDFE1401807
:101E9000190CD99FE9B81CBD7A75272A21AAA87107
:101EA000339C2C17D30BF1EAD5E305EDC8F2781972
:101EB0003D0327DF1776BA6AB9502E940BA5094562
:101EC000004239B0D82C368BCDE240B9500E762581
:101ED000E542B950339BCD17F6E70C2F58C01306D7
:101EE000303259DC7CC12736991969424202FB7BAA
:101EF000FB0B96012C4080550004747A15DE1132DC
:101F0000C20B1EEE32B810460643F6673A2E47AFB4
:101F10005EDD894A882A6A3C5037C3C1F6845EBDBB
:101F2000669D1487CBE5F1327A06279F2FD8E9AA60
:101F3000E542B9502E9402A19441392137E486DC60
:101F4000901B72434E3A1BB9A1DDE6C207F7B7B842
:101F500064B178C20692C9E2414E7C6B9319312676
:101F6000B0BFBF1F0B0359808C05202870062EC000
:101F70000B823D70E22BBB0C06C321FBB31D97A364
:101F800057274B63100928A2CA74B05D2EAF868B09
:101F900057AF5927C5E1625D469F0127DF2756D617
:101FA000888BCDE042B9509A500420940BE542B999
:101FB000502E940BE542B950BB9A4DB950339BCD8E
:101FC00017F6E70C2F58C01B02CC0C36A73CE05389
:101FD000BB4946424202FB7BFB0B96012C408055DD
:101FE0000004740237045E1146E5091FD8E1401869
:101FF000190CD99FE9B81CBD7A75272A21AAA871A6
:10200000339C2C17D30BF1EAD5E305EDC8F2781910
:102010003D030B4F3A9028250C6032D90C93F27097
:10202000C89883BA5C1EE80A03070B4F5AA5C86616
:102030000093C96658078B1743C61C242323073215
:10204000C31E0B8F3180140D41E0821CC19903F037
:10205000620C9CA5B9AC4DE7620C0B4F271319829B
:102060002200A10806A0A4CF525252128100902D46
:10207000105A5242030B0F37072A18108100200A0A
:1020800029BB0F52424343350819D5868686A60BD5
:102090004F1BAD220A8A0084221880928637292994
:1020A00089894000C8168829293B098FDB1301263E
:1020B00050603139A03F0A094F0724202C16D04028
:1020C0008145032ABF08894F6E16308005540C02E3
:1020D00000021188FC2000098FDBD39C9775388C97
:1020E0005FC115098F07649CC631A7B1E52770054C
:1020F000098F6B1CF63CE5CC457E8057000D8F3B6D
:1021000007B2C20694A1A0062630601C387002C235
:10211000048EFBB28E5C628E0D8FBB9331C206942F
:10212000A1A006265080BEE048D8C26D5FF6C983E4
:10213000E90D0D8F133A980D1B5086821A9840B501
:102140001F000E81E3BAEC9B9B404F0D8FBB933178
:10215000C20694A1A006265080BEE048D8C26D5F9A
:10216000F6C983E90D0D4F3B9B8E4D00610082182F
:102170009940491FB280B2806397CB8EA325A407F4
:102180000D4FBB9B8E490061008218992C1C2F5962
:102190002C8670EB72D97135CE6E0D8FBB9331C228
:1021A0000694A1A006265080BEE048D8C26D5FF616
:1021B000C983E90D0DCFC7B98E7C2EF311E4705899
:1021C0009775599775D9D90D8FBBF394CFB1E90B9A
:1021D0008E635FD6655DD6651D6E0D8F738D5B3E1C
:1021E000C7B41FC8E1B22EEBB22E6BD0130D8FBB5C
:1021F000F394CFB1E90B8E635FD6655DD6651D6E36
:102200000D8F3B87C3387AF59A45DF709AF3B22E6B
:10221000EBB22E6BD0130D8FBBF3D4A357AF393D68
:10222000E138F6655DD6655DD6E1060D8FBBF394AA
:10223000CFB1E90B8E635FD6655DD6651D6E258FC8
:10224000CF66387AF5EAD5AB57AF5EBD7AF5EAD5F9
:10225000AB578F64BEEBA05010101110101110106E
:102260001110101110101110101110101110101168
:102270001010111010111010111010111010111059
:102280001011101011101011100A65140000FCFE3E
:10229000FEFEFEFEFFFFFFFEFFFFFFFEFCB8F0FEAE
:1022A000FFFFFFFFFF7F7F7F7F3F3F7F3F1F1F0FAE
:1022B00000010303070707070702000000000000F2
:1022C000000012130000FC06FACA922E9DE5C99682
:1022D000CD6549165CB8F00E41AC563B874D434185
:1022E000442E37402217100F000102020505040595
:1022F0000502000000000000000001010000B8FC21
:10230000FEFFFFFFFEFFFFFFFEFEFEFEFEFC0000E5
:102310000F1F1F3F7F3F3F7F7F7F7FFFFFFFFFFF3D
:10232000FEF000000000000000000207070707079A
:10233000030301001213B85C164965CD96C9E59DEB
:102340002E92CAFA06FC00000F10172240372E44C6
:1023500041434D873B56AC410EF0000000000000A9
:10236000000002050504050502020100010000014C
:102370001F168040A05028D4EA723A9A9A1232F579
:10238000E191E1F234129A9A3A72EAD42850A040CC
:10239000800700020500E73F3C1D5CDC3DA420A94E
:1023A000A429A0A43DDC5C1D3C3FE700050200071A
:1023B0000000000002152B242D2C2C262A2A2A2A64
:1023C0002A2A2A262C2C2D242B150200000000007E
:1023D0000102011C088046DFFF07038247DF7F8779
:1023E0000307070E1E362E546C58B8B8D8B85C6375
:1023F0001C2060E0E0F0F8FBFAFCFFFEFCF0F0F0DF
:10240000F0E00000000000000107070F0F0F0707B2
:10241000070301110C2060E0E0F0F87B6A6C7FFAA2
:10242000FCF0F0E050A000000000000001030305F4
:10243000030503010201000001011E10000000005D
:10244000000000008040000000800000818202B295
:10245000F4F8F870307070E0C08020405060E8E818
:10246000F0E0E1FA7F3F02070FF50FFFFBFCFF01F1
:102470000000000C229F7F0A0000019B1F2A1FB250
:102480001E3D1E42202A2012208F2075205A203CFB
:102490007EFFFFFFFFFFFFFFFF7E3C003C7EFFFF54
:1024A000FFFFFFFFFFFFFFFFFFFFFFFFFFFFFFFF3C
:1024B000FFFFFFFFFFFFFFFFFFFFFFFFFFFFFFFF2C
:1024C0007E3C33083C4281BD89BD81BD9589423C3B
:1024D000003C42BDA5A5A5A5A5A5A5A5A5A5A5A505
:1024E000A5A5A5A5A5A5A5A5A5A5A5A5A5A5A5A59C
:1024F000A5A5A5A5BD423C090404080007000300EA
:102500000804C620B720AA20F020E320D7200F8F90
:102510003A33620F6B1EF95C0A9FC969AFCBBAAC44
:10252000CBBACC020F8F3A8101281C1098630202AB
:1025300019280844372585CF0027849CC65E7B5C1C
:102540008DB39A21802165214B2132211821FD2054
:102550002B2216220022ED21DA21C721B4210F0BF4
:10256000E010E814E4B4947295B6E414E810E001C5
:102570000205020103020202030102050201090829
:10258000080C020D0B0D020C0808083A3B33333BD4
:102590003A013A110B1000101090100017001D188E
:1025A00010101010101000000000070604040404AE
:1025B0000404000400000064050000250000000081
:1025C000000000000104000000000000001E007870
:1025D000003C0001309F0974FF00010106B0FF00BC
:1025E000010106F8FF00010106F000000101076586
:1025F000FF00010003250100010004250100010284
:102600000200FF0001010542FF0001010535FF0046
:1026100001010528FF0001010892FF000101932537
:1026200093259325932589257E255E2503106688AD
:10263000336688338FCF0B591B60C3458005DE009E
:1026400039F38D5EBD79EDD59BD79E59100E060EE0
:1026500086C488468E460E468648C48E060E0811ED
:102660000C14281502010825102111240A1609044A
:102670000103070F070B0502010904080C0E0F0EDA
:102680000D0A04083F8FAE055CBD7AF5EAD5AB575D
:10269000AF5EBD7AF5EAD5AB57AF5EBD7AF5EAD548
:1026A000AB57AF5EBD7AF5EAD52BB0969D1C2817C7
:1026B000CA8572A15C2817CA8572A15C2817CA85D1
:1026C00072A15C2817CA8572A15C2817CA8572A1FD
:1026D0005C2817CA8572A15C2817CA8572A15C287C
:1026E00017CA8159298F198370436EC80DB92127E4
:1026F000C6B8AC0570436EC80DB92137E486DC90CE
:102700001B72436EC80DB901AC2547C28572A15C2E
:102710002817CA09387B42614361436143614361C1
:102720004361436143614361436143614361837238
:10273000122997CC2937E486DC10B7885BC42DE2D8
:1027400016718BD885DC10B7885BC42DE216718BAF
:10275000D885DC901B72C339D97B7AF5EA1CEA452F
:10276000BDA817F5A25EF4EA1CEA45BDA817F5A2BC
:102770005EF4EAD5AB73EFB357AF5EBD7AF5EAD539
:10278000AB57AF5EBD7AF5EAD5AB57AF5E3D032DD3
:10279000DF3F1738817000022C60D16C542E045931
:1027A0002C368BCD62330972201CF963085A9521AF
:1027B000CC516FECDF3FC2CD0E2C38D0ED379940B5
:1027C0000018C0E05D8BA0DB8882512480E8B87AD5
:1027D000136EE0AD37E106DEBC8A3004109B0915AC
:1027E00092F2290712100421C8F02314204BC41DB3
:1027F000C029481800805620000508480100902292
:1028000000004500000A10810A2A0301C029E236AF
:102810009052BE030B0D0703FB0307FF0703FB03E7
:10282000071C181B181C1F1C181B181C0703FB0374
:1028300007FF8383DB1B1B1C181B181C1F18181B8E
:10284000181CFFFFF70303FF0703FB03071F1F1FEE
:1028500018181F1C181B181CFFFFF70303FF8383A6
:10286000DB1B1B1F1F1F18181F18181B181CE363E6
:102870003B03C7FF0703FB030719181A1B1B1F1C89
:10288000181B181CE3633B03C7FF8383DB1B1B1967
:10289000181A1B1B1F18181B181C6363BB0347FF68
:1028A0000703FB03071C181B18181F1C181B181CF8
:1028B0006363BB0347FF8383DB1B1B1C181B1818B8
:1028C0001F18181B181CFF1F870303FF0703FB03B8
:1028D000071C1C1D18181D1C181B181CFF1F870324
:1028E00003FF8383DB1B1B1C1C1D18181F18181BE0
:1028F000181C8383DB1B1BFF0703FB030718181B34
:10290000181C1F1C181B181C8383DB1B1BFF8383D5
:10291000DB1B1B18181B181C1F18181B181C07037F
:10292000DB1B33FF0703FB03071C181B181C1F1CB2
:10293000181B181C0703DB1B33FF8383DB1B1B1CCB
:10294000181B181C1F18181B181CFB7B0B83F3FF8C
:102950000703FB03071B181C1F1F1F1C181B181C39
:1029600007083E7F4377617F3E0D10F008F40C248A
:10297000754674240CF408F000013AE7FE02C7C65D
:1029800006FF2E1900E010E81848EA8CE84818E81D
:1029900010E001023DE6FC04CECC0CFE2D1A01F045
:1029A00008F40C24754674240CF408F000011CF3A0
:1029B000FE02C7C606FF160D000C10000080FCD6F4
:1029C000829646FEBC0000000F081F001818001F6A
:1029D0001C0700000000F8AC042C8CFCF800000080
:1029E0000F091F011919001F1C0700000000F8AC97
:1029F000042C8CFC780000000F091F011919001F1E
:102A0000190E000F8F9FE04066CB1C0CBE380F31B3
:102A100085216010110938A0B7C61CE602E0F0F865
:102A2000FCFCFCFCFEFFFEFCFCF8F0E001030707E9
:102A300007070707070707070703010F0BE010E861
:102A400014E4B4947295B6E414E810E001020502AF
:102A500001030202020301020502010B10FFFFFF46
:102A60005F0F2F5F7FFFFFFF03FDD6DFD7F7D6FD98
:102A700002FD031410FFFFFFFFFFFFFFFFFFFFFF3B
:102A8000FFFFFFFFFFFFFFFFFFFFFFFFFFFFFFFF56
:102A9000FFFFFFFFFFFFFFFFFFFFFFFFFF1410F02F
:102AA0004C141AFF0033332211000004C0E900A0C7
:102AB000001400FFF0F6F606E6E606F60000000059
:102AC00000F0F0FF001400090E07F986AA82AA861A
:102AD000F907003F20242A26203F001C10FFFFFF9B
:102AE000FFFFFFFFFF003333221100001A04C0E98B
:102AF0001DC4320A0A0A0A051DF0F6F606E6E606C5
:102B0000F60000000000F0F0FF04C0FF00FF0080AE
:102B100040A050A8000810FF00333322110000FF2E
:102B2000003333221100001720EFF9063636241245
:102B30000000F906363624120000F9063636241253
:102B40008A54AA52EA34DA54D45AD42AD2A24A94E1
:102B5000CAC4CA142A52A21A04C0E967AC532E2769
:102B60002ED3EC67A04C141AFF00333322111A0441
:102B7000C0E965A04C141A04C0E965A04C141AFF02
:102B80000033332211C0E0F0F8FCFEFFFF0808809C
:102B900040A0502814CAC415D7EFBB7FD7DEBBF7BF
:102BA0003F93737AF5EAD5AB57AF5EBD7AF5EA0489
:102BB0001597DFC9057008B122A104370447B9444D
:102BC0002E793FA5C04026608B808214509085E00E
:102BD000AD5B417512000000E733CFFC5ACF9C017A
:102BE000FC3611241FBECFEFDAE0DEBFCDBF11E00F
:102BF000A0E0B1E0E6EDFFE602C005900D92A83638
:102C0000B107D9F726E0A8E6B1E001C01D92A936C8
:102C1000B207E1F715E1C1EFD5E104C02197FE014C
:102C20000E94E337C03FD107C9F70E941C280C94CB
:102C3000E9370C9400000895A1E8B1E02FB7F894AB
:102C40007D918D919C9166B52FBFA89B05C06F3F6C
:102C500018F47F5F8F4F9F4F22E0660F771F881F0A
:102C6000991F2A95D1F708958091E5059091E60581
:102C70008C5691098531910568F42091A0052A3080
:102C800049F463E070E00E94CF37660F6B5D60939C
:102C9000D405089585E28093D4050895CF92DF92FC
:102CA000EF92FF920F93CF93DF936B017A01E20EC5
:102CB000F11CEA0157FF10C0C0E0D0E00DC0C21700
:102CC000D30794F480E8C816D10428F4402FBE013D
:102CD000C6010E9464252196970181E4E816F1045B
:102CE00074F320E430E0EBCFDF91CF910F91FF90B0
:102CF000EF90DF90CF9008950F920FB61F9211249E
:102D00008F939F93EF93FF93EEE6F1E08091800124
:102D100091E08D5F8D3710F08D57939580938001F2
:102D20008081890F9181911D80839183828193811C
:102D3000811D911D82839383E1E8F1E0808191817F
:102D400001968083918382819381811D911D82836D
:102D50009383FF91EF919F918F911F900FBE0F90E2
:102D6000189566E080E00E941A1E482FE6E0E80F02
:102D7000F6E04E17F8F4842F6F2F0E94AF37292FFB
:102D800030E029563A4FD9011F96D9965C915523C8
:102D900079F0892F5150943038F49091DE059813D2
:102DA00003C094E09093DE05F9013F9651AF08957A
:102DB0004F5FDFCF80E00895CF93C62FC69549E0DF
:102DC000849F802D11244BE0480F80E48C1B0E94CF
:102DD00054208AE48C1BE5E8F1E08083818385E060
:102DE0008283CF910895FC012081222341F010922B
:102DF000A605109299051092EE0510820895809113
:102E0000990581508093990581E08093EE0508959E
:102E1000CF93DF93C82FD0915706DD2321F0D23016
:102E200009F478C0ABC00E940F1E282FC7FF11C045
:102E300080914F06833030F490914E06911106C078
:102E4000882339F0815080934F0603C091509093AE
:102E50004E06C4FF20C090914F0630E0923018F427
:102E6000492F50E00CC080914E06482F50E0BA0127
:102E70006C5F7F4F621773075CF0490F511D215043
:102E80003109421753073CF49F5F90934F0603C0EC
:102E90008F5F80934E06C3FF71C080914F062091D3
:102EA0004E06280FEFEDF5E030E090E0419144232D
:102EB00051F0321307C0EDEFE90FE33040F090938B
:102EC000DE055CC03F5F9F5F963081F757C0E13001
:102ED00041F0E23079F09091F605965F9093F60517
:102EE0000EC09091D0059C5E953608F094E69093C4
:102EF000D00505C090919D059F5F90939D05F0E0E2
:102F0000E755FA4F91AD915091AF911137C08111B2
:102F100032C034C087FF14C09091520683E0890FFD
:102F2000981770F4282F2370E22FF0E0E056FA4F44
:102F300031AD332319F02093520602C08150F0CFF7
:102F4000C4FF1CC08091520621E0280F90E0039638
:102F5000422F50E0841795078CF0322F3370E32F07
:102F6000F0E0E056FA4F41AD442319F03093520699
:102F700005C02F5FEDCF815080934F06C5FF07C07E
:102F8000DD2311F0D15001C0D3E0D0935706C6FF26
:102F900009C080915706833011F08F5F01C080E037
:102FA00080935706C2FF05C0109254068FEF80939E
:102FB0005106DF91CF910895209399058093EF05F5
:102FC0006093E7051092EB0581E08093EC05409358
:102FD000E8058093EE0508951092980510929905E2
:102FE00080E090E031E029E0FC01E956FA4F338FB0
:102FF000208F049684319105B9F70895CF93C82F97
:10300000883029F08A3009F044C080E001C08BE6A6
:10301000809399052091F4059091F2058091F30534
:10302000213059F42091F705920F9093F705909174
:10303000F805890F8093F8050AC02091FA05920FD0
:103040009093FA059091FB05890F8093FB05809181
:10305000F7058093F6058091F8058093F7051092A7
:10306000F8058091FA058093F9058091FB0580931E
:10307000FA051092FB051092F4051092F50583E015
:1030800080939D05CA30B1F58091A705843091F5F4
:103090002EC00E94EC17C33019F128F4CC2359F04C
:1030A000C130F1F027C0C530A1F0C93019F581E079
:1030B000809399051FC081E08093030680E8809388
:1030C000010182E08093020186E595E10E94C12220
:1030D00011C00E94A92180E88093010182E004C010
:1030E00080E88093010184E08093020103C081E0C5
:1030F0008093A505C093A005CF9108951F93CF930A
:10310000DF93C091FF05D09100068091E505909175
:10311000E605C81BD90B8091A505811118C08091C7
:1031200004069E01280F311DC9010996439718F422
:1031300081E00E94FE17809105069E01280F311D37
:10314000C9010996439718F483E00E94FE17109175
:103150000A06112311F18091070690910806039643
:103160008C0F9D1F4397C8F424E64EE561E088E488
:103170000E94DC1710920A066FE085E00E941A1E7A
:103180009091D005890F853608F084E68093D005AC
:1031900084E495E10E94C12260C0CE018859910962
:1031A000439718F588E2809300011DC081919191A9
:1031B0008C0F9D1F09964397F8F02F5F3F4F2330E8
:1031C000310509F43FC0822F4D915D914C0F5D1F79
:1031D0004D5F5F4F4331510548F724E64EE562E00D
:1031E0008F5D0E94DC1711E038C0A7E2B1E0E1E298
:1031F000F1E020E030E0E7CF1091A505112339F090
:1032000024E648E662E089E40E94DC1726C0F90162
:10321000EF5BFA4E8491F901E25CFA4EE49198EC8E
:1032200090939905E093ED0592E09093E705109255
:10323000EB058093EC0582E88093E80581E08093BC
:10324000EE05D1CFC556D109639730F481E0809364
:10325000A60510929905C7CF10E0812FDF91CF917D
:103260001F910895EF92FF920F931F93CF93DF93D7
:103270001F92CDB7DEB71092A60583E6809397051F
:1032800007E915E085E6E82EF12CF80161918F0140
:10329000C70169830E9449376981681719F0C7011E
:1032A0000E945137FFEFEF1AFF0A86E2E81681E02D
:1032B000F80659F724E648E561E086E50F90DF91CE
:1032C000CF911F910F91FF90EF900C94DC17FF921C
:1032D0000F931F93CF93DF93CDB7DEB72A970FB627
:1032E000F894DEBF0FBECDBF2AE0829FC00111243B
:1032F000BC0168557B4E4AE050E0CE0101960E9429
:10330000403789818093A7051092AB050CEA15E040
:1033100083E0F82EF00E67E180E00E941A1EF801AB
:1033200081938F01FE12F7CF8A818093A9058B814B
:103330008093A8058093AA052A960FB6F894DEBF5D
:103340000FBECDBFDF91CF911F910F91FF900895D8
:103350001F93CF93DF93182FD62FC22F85FF04C062
:1033600080E00E94341E2EC065FF28C08091E505D4
:103370009091E605853F2FEF9207B4F0042E000CE4
:10338000550B48175907F4F482E00E94341E20912F
:10339000E5053091E605215031093093E60520938B
:1033A000E5050E9434160EC08FE790E09093E60585
:1033B0008093E50580E00E94FE1704C08091DD0542
:1033C000823071F216FF06C081E0DF91CF911F912C
:1033D0000C94341ED6FF1AC02C2F30E08091E505E6
:1033E0009091E60528173907ACF083E00E94341E5F
:1033F0008091E5059091E60501969093E60580930E
:10340000E505DF91CF911F910C9434168091DD0575
:103410008330D1F2DF91CF911F9108950F93CF9315
:10342000DF93EB0100E021E0AC0161E270E088E0B5
:1034300090E00E94DB1A21E0AE016DE270E087E0CF
:1034400090E00E94DB1ADF91CF910F9108958F9247
:103450009F92AF92BF92CF92DF92EF92FF920F9323
:103460001F93CF93DF939AE0499F50011124C82FF7
:10347000D0E02396E12CF12CC62ED12C460184E01D
:10348000880E911CF701EA0DFB1DE058FB4E1491CC
:1034900000E021E048E654E1B601CE0103970E9426
:1034A000DB1A212F4EE354E1B401CE010E94D32454
:1034B0009FEFE91AF90A2D9685E0E816F10411F755
:1034C000DF91CF911F910F91FF90EF90DF90CF9000
:1034D000BF90AF909F908F900895CF93C82F85E6AF
:1034E000809385018093860185E380938701109204
:1034F000880180E00E94D320C43640F480E00E941E
:10350000D320CA3018F480E00E94D3208C2F0E9470
:10351000D32081E080938801CF910895AC0190E0A1
:103520009617A9F081E0890F282FFA01E90FF11D04
:10353000261759F0DA01A20FB11D9C913081931723
:1035400010F43C9390832F5FF3CF982FE9CF089529
:103550009091F605823051F0833021F081110BC03B
:10356000892F08958091F905880F07C0892F880F4A
:103570009091F90502C08091F905890F0895CF93C4
:10358000DF93EC0185E690E00E9449378883CE0105
:10359000DF91CF910895E7E9F1E081E0A0E0B8E0A4
:1035A00000800EBC8111012C1197A0FDFDCF01926E
:1035B000B9F70DB408952F923F924F925F926F9298
:1035C0007F928F929F92AF92BF92CF92DF92EF92B3
:1035D000FF920F931F93CF93DF93CDB7DEB7629720
:1035E0000FB6F894DEBF0FBECDBF9F878E874A010E
:1035F000288BFA0184913196E491982F9F772224A9
:103600002394290E312C4E855F85420D531D57FDA5
:1036100089C1AE85BF85A038B1050CF083C19E2F4E
:103620009F739F5FAB01490F511D57FD7BC16034F4
:1036300071050CF077C1881F8827881F898381E076
:10364000E6FF80E0EE1FEE27EE1FEC83AB0177FF75
:1036500004C044275527461B570B6A01B7E0CB220D
:10366000DD24AB0177FF02C0495F5F4F5A0153E091
:10367000B594A7945A95E1F777FF0CC0C114D10413
:1036800049F0E1E0AE1AB10848E050E07A01EC18E8
:10369000FD08670141E050E09A010C2C02C0220FA6
:1036A000331F0A94E2F73E832D83E92FE695E695D2
:1036B000E695977009F0EF5F302F31703F8300FF80
:1036C00004C0B1016150710902C060E070E037E0F0
:1036D00040E150E090E000E010E0412C512CAE2F92
:1036E000EE0FBB0BB987A887D1011197BB87AA87BB
:1036F000A885B9854A165B060CF014C1DA01EE24E0
:10370000E394F12CFD0143E0F695E7954A95E1F746
:10371000E80DF91DE491F0E0AD014770552702C0B6
:10372000F595E7954A95E2F7AD014F5F5F4FE0FFF2
:1037300005C0BFEFEB1AFB0ADA01E4CFE1E0EE16B9
:10374000F104D9F4FA0123E0F695E7952A95E1F71B
:10375000E80DF91D6490712C4770552702C07594CF
:1037600067944A95E2F7F1E06F2277242FEF621A0F
:10377000720AAD014E5F5F4F3FC0D7011197BD8701
:10378000AC8766246394712C0C8402C0660C771C91
:103790000A94E2F7BFEF6B1A7B0AE12CF12CFA01D5
:1037A000A3E0F695E795AA95E1F7E80DF91DE491F8
:1037B000AE2FB0E0BA8BA98BDA01A770BB27E989DD
:1037C000FA8902C0F595E795AA95E2F7E0FF0AC0ED
:1037D000E1E0F0E00E2C02C0EE0FFF1F0A94E2F7CA
:1037E0006E0E7F1E4F5F5F4FBFEFEB1AFB0AAC857B
:1037F000BD85EA16FB069CF2E12CF12CE614F704D9
:1038000009F484C0B981BB2369F0E32FF0E0811192
:1038100005C0A7E0B0E0AE1BBF0BFD01E35CFE4FAF
:10382000E0819E2B315008F06DC0992309F449C006
:10383000342D3A0D38300CF044C0EE85FF85E60F8C
:10384000F71FE038F105E8F5AD81BE819A9FF001E0
:103850009B9FF00D1124FD87EC8737FD15C0AE85C9
:10386000BF8520E83203A00DB11D1124A60FB71F9C
:10387000A956BE4F9C912889222311F09E2B03C08C
:10388000EC85E0959E239C93C114D104D1F0373090
:10389000C1F03F3FB4F0AE85BF8520E83203A00DF4
:1038A000B11D1124A60FB71FA95EBD4F9C91388989
:1038B000332319F0ED859E2B03C03D85309593236E
:1038C0009C932C81222311F031E083270F5F1F4F3F
:1038D0009F81992331F002151305F4F461507109A9
:1038E00005C0021513052CF46F5F7F4F37E090E0A1
:1038F00009C0AFEF4A1A5A0A60E070E037E090E082
:1039000000E010E0BFEFEB1AFB0A78CFEE24E3945F
:10391000F980EF18E982ECCEBFEF4B1A5B0A6A859B
:103920007B85ECCF62960FB6F894DEBF0FBECDBF9D
:10393000DF91CF911F910F91FF90EF90DF90CF908B
:10394000BF90AF909F908F907F906F905F904F90BF
:103950003F902F9008952F923F924F925F926F92D7
:103960007F928F929F92AF92BF92CF92DF92EF920F
:10397000FF920F931F93CF93DF9300D000D000D01E
:10398000CDB7DEB7ED824115510509F42FC1FA011B
:1039900034913196E4914E5F5F4FC32ED12C222398
:1039A00011F1AE2FA695A695A695AA2EB12CA1E051
:1039B000B0E0FE2FF77011F4A0E0B0E0AA0DBB1D3F
:1039C000CA9E5001CB9EB00CDA9EB00C1124FD8132
:1039D000F33011F4AA0CBB1C2A9DD0012B9DB00D15
:1039E00011244A0F5B1F2D812F3F39F4011511055A
:1039F00011F021E001C022E02D835C01AC0CBD1C64
:103A00001A141B040CF0F2C0803891050CF0EEC0C3
:103A1000DB01AE0FB11D1A161B060CF0E7C06034B7
:103A200071050CF0E3C04115510509F4DFC0F62F14
:103A3000F7706F2EDB0177FD179623E0B595A795FC
:103A40002A95E1F7FA2F77FF04C0662011F0FFEF07
:103A5000FA0F97FF05C0AA27BB27A81BB90B02C006
:103A6000A0E0B0E020E8A216B10424F020E8722E15
:103A7000781A01C0732E7A1A6F2F0F2E000C770B55
:103A8000FF3F1CF4E62EE09401C0E12C99249394AE
:103A90002E2F277009F4912CE695E695E6959E0E5B
:103AA000690D711D693071051CF0E8E09E2E9F1AAA
:103AB000FE2CFF0E6F2D20E86203800D911D112456
:103AC0008A0F9B1F61E070E0062C02C0660F771F13
:103AD0000A94E2F72D81233011F0E1E001C0E2E029
:103AE000C718D108EC9D802C1124CE2ED12CE39E3A
:103AF000A00DB11D1124CA9E9001CB9E300DDA9EFF
:103B0000300D11245A01A20EB31E0115110509F042
:103B1000A801D60111972A0F3B1F420F531FAFEF89
:103B2000A69F9001A79F300D112429014094509425
:103B3000F90DFE83282D30E0E79D200D311D112465
:103B4000EE81FE1609F452C0DC01A956BE4F4A01AF
:103B50008501E12CE71409F441C0F8013490369E48
:103B6000F001379EF00D1124FA83E983E095F0957A
:103B7000FC83EB83FD81F23019F45C824B8211C02F
:103B8000ED81EB3F19F41A8219820BC0F4013490D5
:103B9000369EF001379EF00D1124E095F095FC83E0
:103BA000EB83F7FC06C0FC91EB81EF23F981EF2B4F
:103BB000EC93662061F0F6E0FF154CF0FD01E05853
:103BC000FF4F20803C8023203A80322830828C0CAA
:103BD0009D1C0C0D1D1DE3941196BCCFF394A20EF9
:103BE000B31E420F531F80589F4FAACF26960FB681
:103BF000F894DEBF0FBECDBFDF91CF911F910F9123
:103C0000FF90EF90DF90CF90BF90AF909F908F90FC
:103C10007F906F905F904F903F902F900895EFEDC1
:103C2000F5E080E096E09E0F219121118F5F9E13B9
:103C3000FBCF0895E82F409103015091040186B510
:103C400048279A0136952795C90140FF02C044EBE9
:103C50009427909304018093030170E06E1B710917
:103C60000E94BB378E0F08959091DD05981721F0C3
:103C70008093DD051092D5050895E091DE058091D1
:103C8000D305E43041F094E0E99FF0011124ED5DAB
:103C9000F14E9491890F08955F926F927F928F9267
:103CA0009F92AF92BF92CF92DF92EF92FF920F93CB
:103CB0001F93CF93DF93CDB7DEB763970FB6F8941A
:103CC000DEBF0FBECDBF8C01CE0101965C0186E048
:103CD000D5011D928A95E9F78AE0898B85E08A8B68
:103CE0001B8A8091DE05843029F0FE01E80FF11D6A
:103CF000F18801C0F12C8FEFF801808311821282CC
:103D000013821486FE013C9680E090E0DC01A95607
:103D1000BA4F5A962C912193049684319105B1F7AC
:103D200065E0CE010C960E948E1A8091DC058823F6
:103D300069F08D859C85981749F09E85891731F02B
:103D40008F85981719F098898913DDC089ED882E21
:103D500085E0982E3401C12CD12CE82C562C581813
:103D6000D3018D913D01882309F43CC045E050E02A
:103D7000B6016750724ECE0107960E94403765E04B
:103D8000CE0107960E948E1A8985873059F12F81BE
:103D90009C85291327C028859D85291323C09E85CE
:103DA000891320C09A858F8598131CC09B858889AC
:103DB000981318C0F8015192CF01B6016150724EAC
:103DC00044E050E00E944037F601EE5FF14EE4918E
:103DD000D8011C96EC931C9751105BC081E014969F
:103DE0008C9357C0FAE0CF0ED11C88E2C816D104DC
:103DF00009F0B4CFFE013C9695E09E0F8191D5016C
:103E0000A80FB11D8C918F5F8C939E13F7CF66E046
:103E1000C5010E948E1AC12CD12CB82CBE18D40119
:103E20008D914D018823D1F145E050E0B6016750F6
:103E3000724ECE0107960E9440378985873071F512
:103E40008E81823058F18D81823040F18F819D8545
:103E5000891719F02F85821321C08A85891315C00F
:103E6000F801B192CF01B6016150724E44E050E0CA
:103E70000E944037F3E0BF120CC082E0D8011496D4
:103E80008C93149715968C9304C09F85891306C054
:103E9000E7CFF8018181F80EF18254C0FAE0CF0E2D
:103EA000D11C88E2C816D10409F0B7CF8E818530C5
:103EB00029F483E3D8018C938DE221C0843029F466
:103EC00084E3F80180838EE10EC0833079F48D8124
:103ED000823029F487E3D8018C9389E110C085E30F
:103EE000F801808384E18F0D81832CC0823051F5ED
:103EF0008D81823039F586E3D8018C938AE08F0D6D
:103F000011968C931FC023E0F8012193CF0144E068
:103F100050E06DE17EE10E944037D801EC91BAE0BB
:103F2000EB9FF0011124EE5FF14EE491EF0DD8010B
:103F30001C96EC931C9782E014968C93149715961C
:103F40008C9304CF63960FB6F894DEBF0FBECDBF3F
:103F5000DF91CF911F910F91FF90EF90DF90CF9065
:103F6000BF90AF909F908F907F906F905F900895DB
:103F700020E030E0D901A956BA4F5896EC915897F5
:103F8000F0E0ED5CFE4F80818F3F29F45B968C91D1
:103F9000882319F0089581E008952C5F3F4F243164
:103FA000310541F70895CF93DF93C82FCF77609104
:103FB0008701CA3051F480918601809385018091F8
:103FC0008A01680F6093870134C090918501C136E2
:103FD00010F420EE01C02AED2C0FD82F6F5F309126
:103FE0008801062E000C770B892F990F990B48EF4B
:103FF0005CE1313019F40E94D42202C00E94CD232A
:1040000090918501C03231F08D2F8F75893411F078
:10401000C73211F49E5F0BC0C252C43010F08C3412
:1040200011F49D5F04C0809189018D5F980F90937A
:104030008501DF91CF9108951F93CF93DF93EB011B
:10404000142F8823C1F0FE0194912196112319F0B9
:104050009038C9F702C097FFF6CF8150F2CF803871
:10406000D1F087FF0FC08F7740E068EB7BE1815094
:104070000E941C202196FE0184911111F0CF87FD32
:1040800004C0EFCF0E94D31FF5CF8F77DF91CF9180
:104090001F910C94D31FDF91CF911F91089541E0A0
:1040A0006BE377E10C941C20AF92BF92CF92DF922A
:1040B000EF92FF920F931F93CF93DF93D62FC42FCE
:1040C000C82E880FDD0876015601A60EB11CEA1431
:1040D000FB046CF400E02C2F40E050E0B7018BE8CB
:1040E00091E00E944E168FEFE81AF80AF0CF1FEF0A
:1040F0001C0FD25076018FEFE81AF80A21E04D2FFD
:1041000060E070E0C7010E942125612F70E06150DE
:1041100071096034710528F421E04D2FC7010E9418
:10412000212501E0212F40E050E0B7018BE891E02C
:104130000E944E16B7016D0F711D61507109212F3C
:1041400040E050E08BE891E00E944E1620E041E311
:1041500057E16FEF7FEFC6010E94D32488E0A81AD1
:10416000B10820E047E257E16FEF7FEFC5010E9401
:10417000D324D0E0289720E04DE157E1BE01C601ED
:104180000E94D32420E043E157E1BE01C501DF9145
:10419000CF911F910F91FF90EF90DF90CF90BF9044
:1041A000AF900C94D3240F931F93CF93DF9300D041
:1041B00000D0CDB7DEB71C82FE0134962AE0622F14
:1041C0000E94AF37905D92938111F9CF8F01F80172
:1041D00081918F01882319F00E94D31FF8CF0F908F
:1041E0000F900F900F90DF91CF911F910F91089535
:1041F000AF92BF92CF92DF92EF92FF920F931F93F5
:10420000CF93DF93CDB7DEB727970FB6F894DEBF15
:104210000FBECDBF8091A705843039F11F829CEA83
:10422000C92E95E0D92ECE0101967C015E0197E062
:10423000A90EB11C8701F60161916F0170E0660F54
:10424000771F6C51794E42E050E0C8010E94403720
:104250000E5F1F4F0A151B0571F7F70181917F0152
:10426000882331F00E94D31FF8CF80E20E944F20B4
:1042700027960FB6F894DEBF0FBECDBFDF91CF916A
:104280001F910F91FF90EF90DF90CF90BF90AF9074
:1042900008950E94D3208AE00C94D31FEF920F93CD
:1042A0001F93EE24E394890120E00E94AB1C1F9130
:1042B0000F91EF90089520918E0130918F0127701A
:1042C0003327232B51F49091AB059F5F981719F07A
:1042D0009093AB0508951092AB0508958091620606
:1042E000E0916006F0916106882349F0CF010296C3
:1042F0009093610680936006859194910895CF0113
:104300000296909361068093600680819181089562
:10431000809158060895CF92DF92EF92FF920F930B
:104320001F93CF93DF93EC017B016A01A90120E089
:104330000E94DB1A21E0A601B701CE010E94DB1A20
:10434000DF91CF911F910F91FF90EF90DF90CF9071
:104350000895E1E7F0E080818D7F808310929100E5
:104360004698479810925F060895CF92DF92EF9299
:10437000FF920F931F93CF93DF930E946E218115BD
:1043800020E8920751F4DF91CF911F910F91FF9098
:10439000EF90DF90CF900C94A92121E020935F064D
:1043A000813020E8920751F480915D0690915E067D
:1043B00090936106809360060E946E2197FD05C070
:1043C00020915C06222309F440C020915B06211154
:1043D0003CC021E020936306EC01DF77209769F46D
:1043E00081E08093640646983FE9C32E3FE0D32ED8
:1043F000E12CF12CCAEFD0E014C08E0120E030E0B7
:1044000060E472E48FE090E0A90198010E945F37B8
:1044100069017A0181E0C81AD108E108F108109217
:104420006406E0915906F0915A060995811103C07E
:1044300081E08093640680916306882309F43FC07D
:104440008091640681113BC003C010926306C4CF03
:10445000469935C0479A0E946E21009771F09C01E1
:10446000DE010E94A037DC01CB0129E0B595A795BC
:10447000979587952A95D1F703C08FEF9FEFDC01C1
:10448000109290002AE020939100D0929900C0925F
:1044900098008093650690936606A0936706B09394
:1044A000680680917100826080937100DF91CF91E6
:1044B0001F910F91FF90EF90DF90CF900895479854
:1044C000CACF1F920F920FB60F9211242F933F93D2
:1044D0004F935F936F937F938F939F93AF93BF930C
:1044E000EF93FF938091650690916606A091670611
:1044F000B0916806892B8A2B8B2B81F18091640601
:1045000081110BC098B180E4892788B98091630636
:10451000882319F088B1805888B9809165069091F8
:104520006606A0916706B0916806181619061A0665
:104530001B06B4F48091650690916606A09167060B
:10454000B09168060197A109B1098093650690931F
:104550006606A0936706B093680602C00E94B52164
:10456000FF91EF91BF91AF919F918F917F916F914B
:104570005F914F913F912F910F900FBE0F901F9021
:1045800018959C01E1E7F0E090819D7F908381E0A8
:1045900080936206309361062093600630935E0636
:1045A00020935D060C94B521EF920F931F933AEF81
:1045B000E32E00E010E00E94AB1C1F910F91EF90E2
:1045C0000895EF92FF920F93CF938091A7058230C9
:1045D00009F45AC070F4882309F444C0813009F00A
:1045E00094C0E091AB05F0E0EE0FFF1FED57FB4DDF
:1045F00040C0833009F45AC0843009F086C0E0918D
:10460000AB05F0E0E153FC4D649170E06B5E7F4FD1
:1046100020E040E753E28DE490E00E94D422E09154
:10462000AB05F0E0E459FC4D649170E0625E7F4FB1
:104630002EEF32E244E353E281E490E00E944E2107
:10464000E091AB05F0E0E650FD4D649170E0625EF4
:104650007F4F2CE832E242EC52E286E690E00E9484
:104660004E2150C0E091AB05F0E0EE0FFF1FE75781
:10467000FB4D4591549100E021E062E270E086E557
:1046800090E00E94DB1A3CC0E091AB05F0E0EE0F39
:10469000FF1FE558FB4D4591549100E021E062E198
:1046A00070E08BE490E00E94DB1A2CC0E091AB0537
:1046B000F0E0E858FB4D649170E0665E7F4F20E0CB
:1046C0004AE354E28BE490E00E94D422E091AB05EF
:1046D000F0E0E95CFB4D649170E06B5E7F4F21EF91
:1046E00033E243E154E28CE490E00E944E2120E06A
:1046F00043ED53E26AE270E084E590E00E94D42248
:1047000083E001C084E00E945B2100E021E04EE3F1
:1047100052E260E070E089E490E00E94DB1A809150
:10472000A8058830E8F420918E0130918F012F7117
:10473000332721313105A0F48091A705843011F091
:1047400080E501C08EE4809385018093860181E03D
:1047500080938701CF910F91FF90EF900C94F820F8
:1047600021E2829FC00111246091AA0570E00E949D
:10477000CF377B01C0E08C2F90E08E159F05E0F6CF
:10478000BC01655B7F4F01E022E04AE050E08BE82E
:1047900091E00E944E16CE5FEECFEF920F931F93E3
:1047A0003BEFE32E00E010E00E94AB1C1F910F9145
:1047B000EF900895EF92FF920F931F93CF93DF93A3
:1047C000182F8091D705882339F0E091D805F0E0C3
:1047D000EB5BFE4FC08102C0C091D4058091DD0526
:1047E000982F9D7F01E0913009F000E09091D6056F
:1047F000D0E0E090E505F090E60591113DC02091F4
:10480000D505823018F0843010F513C080918E01E8
:1048100090918F0166E070E00E94BB37892BB9F45C
:104820002F5F233019F02093D50511C01092D505C4
:104830000EC080918E0180FD08C02F5F243019F0DA
:104840002093D50502C01092D50583E001C080E019
:104850004091D50550E0480F511D440F551FFA01F6
:10486000E05BFA4D25913491FA01EE5BFA4D4591EA
:104870005491BE01C7010EC0002319F081E090E001
:1048800002C08DEF9FEF2EE035E244E255E2BE011B
:104890008E0D9F1D0E948B218091DE05843079F161
:1048A0009091DD05913049F020F0933061F401E002
:1048B0000BC09091D50500E003C09091D50501E0B3
:1048C000911104C001C000E035E001C034E090E087
:1048D000880F991FFC01E85FFA4DA591B491FC0186
:1048E000EE5FFA4D45915491BE01631B71098091B1
:1048F000E5059091E6059D0102960E948B2180912D
:10490000D7058823B9F08091E5059091E60520E070
:1049100047EF54E26EE270E00296112319F00E9414
:10492000D4220AC0DF91CF911F910F91FF90EF9099
:104930000C94CD23112381F12FE834E242EC54E2B0
:1049400060E070E080E090E00E944E218091D00510
:10495000883048F420918E0130918F012F713327D8
:1049600021313105C8F0853608F084E6CBEA8C9F0A
:10497000C12D1124C695D0E0DC1770F46D2F70E0C6
:10498000605F7F4F01E022E043E050E08BE891E080
:104990000E944E16DE5FF0CFDF91CF911F910F91F5
:1049A000FF90EF900895EF920F931F9332E0E32E64
:1049B00000E010E00E94AB1C1F910F91EF90089552
:1049C000F89487E78093000880930108A89588E110
:1049D0008093600088E080936000FFCFBC0180E09E
:1049E00090E0AB01FC010E941C1641505109E10905
:1049F000F10928F068517C4F8F4F9F4FF6CFAB01E4
:104A0000FC010E941C16641775078E079F07C8F3E8
:104A10000895811102C086EA01C087EA5C988EBDC4
:104A200000000DB407FEFDCF5C9A08951092580661
:104A30003E983F9808953E9A3F9A81E080935806A9
:104A40000895FC01840F911D18161906E4F5E0384D
:104A5000F105CCF5F7FF02C0E0E0F0E08138910508
:104A600014F080E890E0382F3E1BAB0177FF02C0C6
:104A7000495F5F4F83E0559547958A95E1F75695D5
:104A8000542F442757954795E40FF51FE956FE4FDD
:104A90006770772781E090E001C0880F6A95EAF798
:104AA000482F222349F0213071F4315020F08081C9
:104AB000842B8193FACF08958095315020F0908116
:104AC00098239193FACF089590E1282F81E061FD1A
:104AD00084E060FD880F62FD8295687F969FD0011B
:104AE0001124A20FA956BE4F9C91982B40FF9827E6
:104AF0009C9308958F929F92AF92BF92CF92DF9234
:104B0000EF92FF920F931F93CF93DF93182F86E0BE
:104B1000E82E86E0F82E99E0C92E96E0D92EA12C39
:104B2000B12C0091A505C091FF05D0910006C501EB
:104B300089569A4FFC01EC58FF4F20812113EFC09A
:104B4000D701EC914E2F50E0FA013297E830F10591
:104B500008F0E5C0E459FF4F0C94E337CE01069707
:104B6000D7011196ED91FC91129700E027E93BE205
:104B700040EB5BE261E270E08E0F9F1F0E948B2191
:104B8000CEC0F7018181928125E83BE24DE85BE2EE
:104B90006AE070E04E01F5E18F1A9108880D991DC9
:104BA0000E944E21D7011196ED91FC91129720E0C1
:104BB00047E25BE262E070E0CE010D978E0F9F1F2F
:104BC0000E94D324F7018181928120E045E15BE2DC
:104BD00062E170E0880D991D0E94D324D7011196DF
:104BE000ED91FC91129720E04BED5AE262E270E009
:104BF000CE014C978E0F9F1F0E94D324002309F4EF
:104C00008EC0CE010997D7011196ED91FC911297B4
:104C100020E047EC5AE264E270E016C0F7018181BF
:104C2000928123E73AE24DE95AE262E270E01AC06B
:104C3000CE010497D7011196ED91FC91129720E0D7
:104C40004BE55AE262E270E08E0F9F1F0E94D32470
:104C500066C0F701818192812DE13AE24BE35AE28D
:104C600068E270E08C0F9D1F0E944E2158C0D70152
:104C700011968D919C91129700E020E043E05AE25A
:104C800062E270E08C0F9D1F0E94DB1A48C0D701C2
:104C90001196ED91FC911297CE01002341F00497FB
:104CA000D6012C9149EB59E265E270E007C0059707
:104CB000D6012C9149E659E262E270E08E0F9F1F07
:104CC0000E94CD2380918E0190918F01877099274A
:104CD000892B29F5F60180818F5F833011F0808365
:104CE0001EC010821CC0FC01ED58FF4F808188233C
:104CF000B1F080918E0190918F018F71992741972A
:104D000070F02597F70181819281D6012C9140E6C0
:104D100059E26BE270E08C0F9D1F0E94CD23B6E03C
:104D2000AB0EB11CE6E0EE0EF11CF6E0CF0ED11C8E
:104D300088E4A816B10409F0F4CEDF91CF911F9159
:104D40000F91FF90EF90DF90CF90BF90AF909F902A
:104D50008F900895E5E8F1E082E5808381838AE120
:104D600082838FE10C944F20CF93C82F682F81E06E
:104D70000E94DC16C6958CE48C1BE5E8F1E080838C
:104D8000818385E082838EE1CF910C944F20CF9375
:104D9000DF93EC01262F44E158E263E270E089E5FD
:104DA00090E00E94D42220E0AE0163E270E087E64A
:104DB00090E0DF91CF910C94D422EF92FF920F9369
:104DC000CF937C01C62F00E021E04FE857E262E07C
:104DD00070E08DE490E00E94DB1A21E0A70168E01A
:104DE00070E08FE590E00E94DB1A21E041E357E29A
:104DF00061E270E081E590E00E94DB1A21E044EE80
:104E000056E263E370E081E590E00E94DB1A21E066
:104E100044E856E26EE170E085E090E00E94DB1A23
:104E20008091540681111FC020919E0561E070E0C1
:104E3000222311F060E070E020E049E756E281E2D1
:104E400090E00E94D32480919F05811103C06BE301
:104E500070E002C06CE370E020E04EE656E281E2D2
:104E600090E00E94D32484E580938501809386019D
:104E700085E380938701CC2311F08CE101C08DE1A3
:104E8000CF910F91FF90EF900C944F20DF92EF9213
:104E9000FF920F931F93CF93DF93CDB7DEB7689741
:104EA0000FB6F894DEBF0FBECDBFDD24D394809142
:104EB000A705843019F0D12C0FE501C00FE79EEF54
:104EC000E92EFF24FA9410E0E016F10664F420E0E5
:104ED0004CE456E262E370E0C7010E94D32480E113
:104EE000E80EF11CF1CFD1100AC000E021E044E34C
:104EF00056E266E370E080E790E00E94DB1A20E073
:104F00004CE256E26BEF7FEF87E790E00E94D324FC
:104F100020E04CE256E260E070E08CE790E00E9416
:104F2000D32487E0E9E5F1E0DE01529601900D928D
:104F30008A95E1F787E0E0E6F1E0DE011B9601905B
:104F40000D928A95E1F78091030690E001972AE09F
:104F5000289FB001299F700D112468557B4E4AE0AF
:104F600050E0CE0101960E9440378EE1E82E86E2A5
:104F7000F82E00E010E08A8590E0002E02C09595A2
:104F800087950A94E2F780FF16C0F7014591549186
:104F9000EBE0F0E0EC0FFD1FE00FF11F608170E02F
:104FA000E2E1F0E0EC0FFD1FE00FF11F808120E057
:104FB00090E00E94D4220F5F1F4F82E0E80EF11CA8
:104FC00008301105C1F668960FB6F894DEBF0FBE23
:104FD000CDBFDF91CF911F910F91FF90EF90DF90A8
:104FE000089541E550E06DEC75E28DEF95E00E948B
:104FF0004037E7E9F5E08CE0DF011D928A95E9F79B
:1050000083E08683089580E00E94FE170E94F127C6
:105010008FEF8093520610920A0646E150E067EB4C
:1050200075E280ED95E00E9440378CE390E090932C
:10503000E6058093E5050895CDB7DEB76997DEBF35
:10504000CDBF11E01093E0001092E2001092E10059
:1050500080E28093D8001092D7008091650080682C
:1050600080936500789483E084BD83E085BD1093D0
:105070006E00E1E8F0E083E08083E0E881E0808397
:10508000E3EC81E08083E2EC81E08083EAE787E083
:10509000808380688083559A209A5D9A289A8C9A9A
:1050A00084988AE090E00E94EE247C9B0E94E02499
:1050B00081EC80937C0085B1806F85B984B1877E57
:1050C00084B984B1876E84B95E9A5F988AB1806D25
:1050D0008AB9769A6E9881B3806F81BB899880B3C4
:1050E0008D7080BB80E58CBD1DBD85E090E00E9489
:1050F000EE245F9A85E090E00E94EE245E985C9832
:10510000E0E6F6E08DE08E0F94919EBD00000DB4B8
:1051100007FEFDCF31968E13F7CF5C9A81E880931E
:1051200064008091650081608093650089E18093CF
:10513000920182E090E00E944937882319F00E9492
:105140001B2502C00E941625CC24C39411E0BB2469
:10515000B39489ED95E094E0D92ED80E20E8E22EA4
:10516000F12C8FB7F89440916E0150916F016091CE
:105170007001709171018FBF80919301242F281BC2
:10518000822F90919401992329F0209395011092F8
:105190009401E7CF90919201291738F48F5F891716
:1051A00000F7C3BE889513BEDCCFB0929401409344
:1051B000930180918E0190918F01019690938F01C0
:1051C00080938E0120919001209391018FB1809561
:1051D000807F669B88601C9B846080939001909187
:1051E0006D01923009F48DC028F4992361F091305B
:1051F00071F0B7CF943009F4FEC008F48DC095303B
:1052000009F4FEC0AECF10926C0110936D01209591
:10521000822369F080916C01882319F08CE78093D8
:105220006C0180916C01811102C010936C0180911E
:105230006C01882341F08F5F80936C018D3719F4E6
:1052400082E080936D0100E021E04CE254E161E1F5
:1052500070E08FE290E00E94DB1A21E041E154E12E
:105260006AE170E08BE290E00E94DB1A21E041E10C
:1052700054E16AE170E089E490E00E94DB1AA090BA
:105280006C01A11013C021E041E154E16AE170E03A
:105290008AE390E00E94DB1A21E049ED53E16EE2DF
:1052A00070E08AE190E00E94DB1A80C000E021E01B
:1052B0004EEB53E16AE170E08AE390E00E94DB1A72
:1052C00021E042EA53E16EE270E08CE290E00E945D
:1052D000DB1A8A2D6FE00E94AF37082F03708FE42E
:1052E000882E912CA12CA01609F460C041E061E346
:1052F00070E0C4010E946425A39432E0830E911CE7
:10530000F2CF10926901109268018CE493E10E943F
:10531000C12283E080936D012091900180919101E1
:105320008095822390916A01992319F0915090936E
:105330006A0124FF3EC090916801903108F0B6CE1A
:105340009F5F9093680190916901903218F49F5F7C
:105350009093690183FF03C094E090936D0182FDF7
:105360002BC000E021E040EB50E166E070E080E01F
:1053700090E00E94DB1A80916901803249F421E0BB
:1053800045E850E165E370E080E390E00E94DB1ABD
:1053900080916A01882351F020916B0143E750E12D
:1053A00068E370E088E790E00E94D3240E94CB1A63
:1053B000D8CE10926801C7CF80915806882321F07B
:1053C0000E94162500E003C00E941B2501E06091A9
:1053D000580682E090E0698F0E944937698D68170E
:1053E00021F082E090E00E94513700936B0188E247
:1053F00080936A01B6CF0E94032885E080936D01F7
:10540000009190018091910180958023888FE09197
:10541000A0054E2F50E04B30510508F0FEC5FA01B3
:10542000EA5AFF4F0C94E337909154069111F3C55B
:105430002091A605909199052111ECC0992371F056
:10544000983C29F0CE0148960E94F31607C08C7054
:1054500011F00C942C368C258093EE05888D82FDFE
:105460001093540690919905983C09F4A1C085FFCA
:1054700004C080E00E94341E41C005FF3AC082E0B3
:105480000E94341E8091E5059091E6058D339105CB
:1054900054F52091FF05309100062F3F3105ECF4C3
:1054A00080918E0180FD09C08091FD059091FE05DF
:1054B00001969093FE058093FD05809101069091E1
:1054C0000206029690930206809301062F5F3F4FDB
:1054D000309300062093FF0511C02F3F310571F472
:1054E000833091055CF001979093E6058093E50584
:1054F00005C08091DD05823009F4BBCF888D86FF21
:1055000004C081E00E94341E53C006FF4CC083E0FB
:105510000E94341E8091E5059091E6058C3391053B
:1055200064F12091FF053091000622354FEF3407DA
:10553000ECF080918E0180FD09C08091FD05909175
:10554000FE0501979093FE058093FD05809101066D
:1055500090910206029790930206809301062150D3
:105560003109309300062093FF0522C02091A50544
:1055700021111EC08038910534F401969093E60500
:105580008093E50515C000910306015085EF9FEF5C
:105590009093E6058093E50585E00E94FE17802F35
:1055A0000E94671905C08091DD05833009F4A9CFF9
:1055B000888D87FF14C080919905883C41F48091C3
:1055C000EB05882361F081508093EB0508C00E94B1
:1055D0007E18811104C01093D7051092D805988DBC
:1055E00094FF13C080919905883C79F48091EB0574
:1055F000482F50E04E5F5F4F2091EC0530E042179E
:1056000053071CF48F5F8093EB0593FF06C50E9440
:105610007E1803C5911157C087FF07C090915306AC
:10562000992319F091509093530684FF10C0CE0136
:1056300001960E94BF1A80915306882329F0998110
:10564000933629F4823018F48F5F80935306888D47
:1056500082FD1092A60583FFE0C48091530681303D
:10566000C1F058F0823009F0D8C4B7E96B2EB5E02C
:105670007B2E05E6802E912C13C0CE0101960E9450
:10568000BF1A89818336C9F52FEF48E662E08AE4C4
:1056900004C02EEF44E562E08BE40E94DC17BDC439
:1056A000C4010E944937D3018D933D01BFEF8B1A8E
:1056B0009B0AE6E28E16E1E09E0691F724E644E6B8
:1056C00061E08CE4EACF1093EE0582FF04C01092F3
:1056D000A6051092990583FFA0C4809153068823E4
:1056E00061F0813009F099C41092A60510929905D5
:1056F0001092A5050E94032890C40E9432198DC4FF
:1057000090915406911187C480919905882321F0C6
:10571000CE0148960E94F316888D282F221F22273B
:10572000221F49F090919B05992311F0915001C0DF
:1057300096E090939B0520939E0584FB222720F9F9
:1057400084FF09C090919B05963010F49F5F01C0C3
:1057500090E090939B0520939F0582FD1093540643
:1057600083FF5BC460919B05F4E06F9FB00111243F
:10577000695A7F4E44E050E0CE0101960E944037C6
:1057800089818130A1F028F0823009F4FBC30C94A8
:105790003236EA81F0E0EA55FA4F81AD813011F0FE
:1057A0000C94323624E64EE562E08DE476CFEA8151
:1057B000ED5FF0E0EA55FA4F81AD853011F00C94C1
:1057C000323624E648E563E08EE467CF1093EE05B9
:1057D00083FF2DC060919B0524E0629FB0011124DE
:1057E000695A7F4E44E050E0CE0101960E94403756
:1057F00089E490E10E94C1228981882339F08130B7
:1058000061F4EA81F0E0E755FA4F04C0EA81F0E084
:10581000EA55FA4F81AD8F5F81AF8091D10590E05D
:105820002C81821B91098093D1051093A005888D4E
:1058300082FFF3C31093A005F0C390915406911119
:10584000EAC380919905882321F0CE0148960E94F1
:10585000F316988D97FF0CC080919A05882311F05C
:10586000815001C084E080939A0510939E0505C085
:1058700080919E05811110929E0594FF0CC080912D
:105880009A05843010F48F5F01C080E080939A0500
:1058900010939F0505C080919F05811110929F056F
:1058A00092FD1093540693FFB8C320919A05822F5E
:1058B00090E03AE0239FF0011124EB57FB4EE49176
:1058C000243009F45FC3DC01A056BA4FD9968C91FD
:1058D000882311F40C94503624E646E562E081E515
:1058E000DCCE1093EE0583FF27C089E490E10E948F
:1058F000C12220919A05A22FB0E04AE0249FF00136
:105900001124EB57FB4EE491A056BA4FD9968C91D7
:10591000D9978F5FD9968C938091D20590E08E1B9A
:1059200091098093D20583E08093A005809152066F
:105930008F3F11F420935206888D82FF6EC383E05F
:105940008093A0056AC38091E5059091E6050597CF
:10595000B9F462E080E00E941A1E811106C00E9424
:10596000EC1786E08093A0050BC00E94EC1787E03F
:105970008093A00524E642E861E084E50E94DC17FC
:1059800021E344EF602F888D0E94A81946C39091AF
:105990005406911140C390919905973609F45FC060
:1059A00038F49536F9F0C8F5913008F000C32DC1F0
:1059B0009A3609F41CC138F4983609F474C0993643
:1059C00009F4FDC022C121E9290F2D3308F01DC1C2
:1059D00091509093990583FD03C09F3609F01DC334
:1059E00085E611C01093EE0583FF17C38091F00583
:1059F0008F3F21F488E00E94FE170FC38091F105CC
:105A0000882321F086E68093990507C38091FC05E1
:105A1000882309F402C389E6F6CF1093EE0583FFCD
:105A2000FCC28091F0058F3F29F388E680939905A9
:105A300088E080939C058091F1059091A9059817C5
:105A400010F4891B01C080E09091A805891720F40B
:105A5000981B9093A805E1C21092A805DEC210938E
:105A6000EE0583FFDAC288E68093990588E080938B
:105A70009C058091A7050E94A81A9091A9059817E6
:105A800010F4891B01C080E09091A805891720F4CB
:105A9000981B9093A80502C01092A8051092F605D5
:105AA0001092F905BAC280919C05823038F083E3E8
:105AB00090E10E94C12280919C0507C20091A80537
:105AC00001115AC085EE9FE00E94C1228AE00E9427
:105AD000FE172091030630E0215031098AE0829FB1
